{
  "fileName": "PolicyTreeTransitions.sol",
  "contractName": "PolicyTreeTransitions",
  "source": "// SPDX-License-Identifier: MIT\npragma solidity ^0.6.2;\npragma experimental ABIEncoderV2;\n\ncontract PolicyTreeTransitions {\n  event Transition(address indexed from, bytes32 indexed bloom, bytes transition);\n\n  function log(bytes32 bloom, bytes memory transition) public {\n    emit Transition(msg.sender, bloom, transition);\n  }\n\n  function logMultiple(bytes32[] memory blooms, bytes[] memory transitions) public {\n      for (uint i = 0; i < blooms.length; i++) {\n        emit Transition(msg.sender, blooms[i], transitions[i]);\n      }\n  }\n\n  function callDataOnly(bytes32 bloom, bytes memory) public {\n    emit Transition(msg.sender, bloom, \"\");\n  }\n\n}\n",
  "sourcePath": "contracts/PolicyTreeTransitions.sol",
  "abi": [
    {
      "anonymous": false,
      "inputs": [
        {
          "indexed": true,
          "internalType": "address",
          "name": "from",
          "type": "address"
        },
        {
          "indexed": true,
          "internalType": "bytes32",
          "name": "bloom",
          "type": "bytes32"
        },
        {
          "indexed": false,
          "internalType": "bytes",
          "name": "transition",
          "type": "bytes"
        }
      ],
      "name": "Transition",
      "type": "event"
    },
    {
      "inputs": [
        {
          "internalType": "bytes32",
          "name": "bloom",
          "type": "bytes32"
        },
        {
          "internalType": "bytes",
          "name": "",
          "type": "bytes"
        }
      ],
      "name": "callDataOnly",
      "outputs": [],
      "stateMutability": "nonpayable",
      "type": "function"
    },
    {
      "inputs": [
        {
          "internalType": "bytes32",
          "name": "bloom",
          "type": "bytes32"
        },
        {
          "internalType": "bytes",
          "name": "transition",
          "type": "bytes"
        }
      ],
      "name": "log",
      "outputs": [],
      "stateMutability": "nonpayable",
      "type": "function"
    },
    {
      "inputs": [
        {
          "internalType": "bytes32[]",
          "name": "blooms",
          "type": "bytes32[]"
        },
        {
          "internalType": "bytes[]",
          "name": "transitions",
          "type": "bytes[]"
        }
      ],
      "name": "logMultiple",
      "outputs": [],
      "stateMutability": "nonpayable",
      "type": "function"
    }
  ],
  "bytecode": "0x608060405234801561001057600080fd5b506106de806100206000396000f3fe608060405234801561001057600080fd5b50600436106100415760003560e01c8063535bbc83146100465780637b61456e14610062578063d72a26651461007e575b600080fd5b610060600480360361005b9190810190610388565b61009a565b005b61007c600480360361007791908101906103f4565b610130565b005b610098600480360361009391908101906103f4565b610181565b005b60008090505b825181101561012b578281815181106100b557fe5b60200260200101513373ffffffffffffffffffffffffffffffffffffffff167f616ca504222f7ea320ad71402990a59200b4adf3a38dc8b47ea44412c6ad68a684848151811061010157fe5b602002602001015160405161011691906104d4565b60405180910390a380806001019150506100a0565b505050565b813373ffffffffffffffffffffffffffffffffffffffff167f616ca504222f7ea320ad71402990a59200b4adf3a38dc8b47ea44412c6ad68a660405161017590610518565b60405180910390a35050565b813373ffffffffffffffffffffffffffffffffffffffff167f616ca504222f7ea320ad71402990a59200b4adf3a38dc8b47ea44412c6ad68a6836040516101c891906104f6565b60405180910390a35050565b600082601f8301126101e557600080fd5b81356101f86101f382610565565b610538565b9150818183526020840193506020810190508385602084028201111561021d57600080fd5b60005b8381101561024d578161023388826102cb565b845260208401935060208301925050600181019050610220565b5050505092915050565b600082601f83011261026857600080fd5b813561027b6102768261058d565b610538565b9150818183526020840193506020810190508360005b838110156102c157813586016102a788826102e0565b845260208401935060208301925050600181019050610291565b5050505092915050565b6000813590506102da81610691565b92915050565b600082601f8301126102f157600080fd5b81356103046102ff826105b5565b610538565b9150808252602083016020830185838301111561032057600080fd5b61032b83828461063e565b50505092915050565b600082601f83011261034557600080fd5b8135610358610353826105e1565b610538565b9150808252602083016020830185838301111561037457600080fd5b61037f83828461063e565b50505092915050565b6000806040838503121561039b57600080fd5b600083013567ffffffffffffffff8111156103b557600080fd5b6103c1858286016101d4565b925050602083013567ffffffffffffffff8111156103de57600080fd5b6103ea85828601610257565b9150509250929050565b6000806040838503121561040757600080fd5b6000610415858286016102cb565b925050602083013567ffffffffffffffff81111561043257600080fd5b61043e85828601610334565b9150509250929050565b600061045382610618565b61045d8185610623565b935061046d81856020860161064d565b61047681610680565b840191505092915050565b600061048c8261060d565b6104968185610623565b93506104a681856020860161064d565b6104af81610680565b840191505092915050565b60006104c7600083610623565b9150600082019050919050565b600060208201905081810360008301526104ee8184610481565b905092915050565b600060208201905081810360008301526105108184610448565b905092915050565b60006020820190508181036000830152610531816104ba565b9050919050565b6000604051905081810181811067ffffffffffffffff8211171561055b57600080fd5b8060405250919050565b600067ffffffffffffffff82111561057c57600080fd5b602082029050602081019050919050565b600067ffffffffffffffff8211156105a457600080fd5b602082029050602081019050919050565b600067ffffffffffffffff8211156105cc57600080fd5b601f19601f8301169050602081019050919050565b600067ffffffffffffffff8211156105f857600080fd5b601f19601f8301169050602081019050919050565b600081519050919050565b600081519050919050565b600082825260208201905092915050565b6000819050919050565b82818337600083830152505050565b60005b8381101561066b578082015181840152602081019050610650565b8381111561067a576000848401525b50505050565b6000601f19601f8301169050919050565b61069a81610634565b81146106a557600080fd5b5056fea2646970667358221220a6caa448a0018fdee702e880be049882f5641cc2eae41df4cd866b393458798b64736f6c63430006020033",
  "compiler": {
    "name": "solc",
    "version": "0.6.2+commit.bacdbe57.Emscripten.clang",
    "optimizer": {
      "enabled": false,
      "runs": 200
    },
    "evmVersion": "petersburg"
  }
}