{
  "fileName": "PolicyTreeTransitions.sol",
  "contractName": "PolicyTreeTransitions",
  "source": "// SPDX-License-Identifier: MIT\npragma solidity ^0.5.0;\n\ncontract PolicyTreeTransitions {\n  event Transition(address indexed from, bytes32 indexed bloom, bytes transition);\n\n  function log(bytes32 bloom, bytes memory transition) public {\n    emit Transition(msg.sender, bloom, transition);\n  }\n}\n",
  "sourcePath": "contracts/PolicyTreeTransitions.sol",
  "abi": [
    {
      "anonymous": false,
      "inputs": [
        {
          "indexed": true,
          "internalType": "address",
          "name": "from",
          "type": "address"
        },
        {
          "indexed": true,
          "internalType": "bytes32",
          "name": "bloom",
          "type": "bytes32"
        },
        {
          "indexed": false,
          "internalType": "bytes",
          "name": "transition",
          "type": "bytes"
        }
      ],
      "name": "Transition",
      "type": "event"
    },
    {
      "constant": false,
      "inputs": [
        {
          "internalType": "bytes32",
          "name": "bloom",
          "type": "bytes32"
        },
        {
          "internalType": "bytes",
          "name": "transition",
          "type": "bytes"
        }
      ],
      "name": "log",
      "outputs": [],
      "payable": false,
      "stateMutability": "nonpayable",
      "type": "function"
    }
  ],
  "bytecode": "0x608060405234801561001057600080fd5b506101e2806100206000396000f3fe608060405234801561001057600080fd5b506004361061002b5760003560e01c8063d72a266514610030575b600080fd5b6100f36004803603604081101561004657600080fd5b81019080803590602001909291908035906020019064010000000081111561006d57600080fd5b82018360208201111561007f57600080fd5b803590602001918460018302840111640100000000831117156100a157600080fd5b91908080601f016020809104026020016040519081016040528093929190818152602001838380828437600081840152601f19601f8201169050808301925050505050505091929192905050506100f5565b005b813373ffffffffffffffffffffffffffffffffffffffff167f616ca504222f7ea320ad71402990a59200b4adf3a38dc8b47ea44412c6ad68a6836040518080602001828103825283818151815260200191508051906020019080838360005b8381101561016f578082015181840152602081019050610154565b50505050905090810190601f16801561019c5780820380516001836020036101000a031916815260200191505b509250505060405180910390a3505056fea265627a7a723158205e1fd5d3489234df15e18b75a5124c4c6b87fa7185b24c48e6fc9f6aef53b78864736f6c63430005110032",
  "compiler": {
    "name": "solc",
    "version": "0.5.17+commit.d19bba13.Emscripten.clang",
    "optimizer": {
      "enabled": false,
      "runs": 200
    },
    "evmVersion": "petersburg"
  }
}